:020000040000FA
:20000000CFC00000E9C00000E7C00000E5C00000E3C00000E1C00000DFC00000DDC00000DC
:20002000DBC00000D9C0000030C70000D5C00000D3C00000D1C00000CFC00000CDC00000C0
:20004000CBC00000CAC00000C7C00000C5C00000C3C00000C1C00000BFC00000BDC000007F
:20006000BBC00000B9C00000B7C00000B5C00000B3C00000B1C00000AFC00000ADC00000E0
:20008000ABC00000A9C00000A7C00000A5C00000A3C00000A1C000009FC000009DC0000040
:2000A0009BC0000099C0000097C00000180341006C007000680061005300700068006500A4
:2000C00072006500000014036E007500200064006500730069006E006500000004030904A3
:2000E00009028D00030100C0FA080B0002010100000904000000010100000924010001094C
:200100000001010904010002010300000724010001410006240201010006240202020009F4
:200120002403010301020100092403020401010100090501024000010000052501010109CF
:2001400005820240000100000525010103090402000203000000092111010001222000070C
:200160000583034000010705040340000112010002EF020108501D216001000102DC01067B
:2001800000FF0901A1010902150025FF7508958081020903150025FF7508957F9102C00032
:2001A00011241FBECFEFDAE0DEBFCDBF11E0A0E0B1E0ECE7F6E102C005900D92A03AB10758
:2001C000D9F714E0A0EAB1E001C01D92A930B107E1F755D00C943C0B13CF1F920F920FB662
:2001E0000F9211242F933F934F935F936F937F938F939F93AF93BF93EF93FF93F9D40E9442
:20020000CD0AFF91EF91BF91AF919F918F917F916F915F914F913F912F910F900FBE0F909C
:200220001F90189584B7877F84BF88E10FB6F89480936000109260000FBE90E080E80FB645
:20024000F89480936100909361000FBE06D6BBD390D373D2C0D22CD433D5729AE1E8F0E0FC
:20026000808188608083AFE6B0E08C9182608C938AEF809388008081836080830895CF9355
:20028000DF93CDB7DEB7C456D2400FB6F894DEBF0FBECDBFFE01EF51FE4F10E6DF01212FAE
:2002A0001D922A95E9F7BEDF4FEF53E060E070E080E090E06FD3789481E090E00E94260B90
:2002C0008A3009F478C15E0141ECA40EB11C20ECD501E22F1D92EA95E9F7CE010196DC01DF
:2002E0001D922A95E9F79E012F573E4FF90111921A95E9F740E2EFE7F1E0DE01AF5BBD4F14
:2003000001900D924A95E1F7612CCD59DD4FA882C356D2402B2C322E432E582ECC59DD4FC3
:200320009883C456D24047C0872D5AD38FE396E00197F1F700C0000060E084E012D28C0151
:20034000222717FD2095322FD4014D915D916D917C91400F511F621F731FF40141935193FF
:20036000619371934F016620B9F0D6012D913C91281B390B8901222717FD2095322FF70128
:200380004081518162817381400F511F621F731F4083518362837383F601819391936F0110
:2003A0007394F4E0EF0EF11C20E37212BDCF639444E66416D1F0CD59DD4F5881C356D24093
:2003C000CF59DD4F5883C156D240CE59DD4F2882C256D240C32CD42CE52CCC59DD4FF880D5
:2003E000C456D2404501712C9FCF5E018FE7A81A8EEFB80A84E6C82ED12CE12CF12CCF59FB
:20040000DD4FA881B981C156D2406D917D918D919C91A70196010E94E90ACF59DD4FE8813C
:20042000F981C156D2402193319341935193CF59DD4FF983E883C156D240EA15FB05F9F697
:20044000F12C6CC00F2D020F21153105E9F081EC90E08C0F9D1F44E0049F800D911D112456
:200460006C01A4E0CA1AD108DC014D915D916D917C91D6018D909D90AD90BC90841695063B
:20048000A606B7060CF480C0B4E00B9F80011124A1ECB0E0AC0FBD1FA00FB11F8D919D9140
:2004A0000D90BC91A02D40815181662757FD6095762F84179507A607B7070CF465C04281ED
:2004C0005381662757FD6095762F84179507A607B7070CF059C0A1E0B0E0AC0FBD1FA00FBF
:2004E000B11F8D919D910D90BC91A02D85319105A105B1050CF048C08C3E9F4FAF4FBF4FB9
:200500000CF442C02F5F3F4F34962830310509F099CF58E0F50E80E3F81631F0FE01EF5BEE
:20052000FD4F20E030E08ECF80E03CD1F12C00E010E0EE24E3948F2D35D1AFE9BFE011977E
:20054000F1F700C0000061E080E00BD14E2D8017910754F0833CB1E09B0734F021E030E061
:200560008632E2E09E0714F020E030E0E22EE422F1E0EF22F3948C0120E2F212DCCFE8D2D1
:20058000882311F01E2D01C010E040E050E06FEF71E08FEF91E0FED16299FECF112391F079
:2005A0006AE081E090E00E942E0B05C0F89484E6D2D27894FBCF40E050E06FEF73E080E0AF
:2005C00090E006C040E050E060E070E08FEF93E0E1D1ECCF0895089542E361EC83E073D352
:2005E00042E360EC84E06FD342E361E882E06BD342E360E881E067C30895292F332723303C
:200600003105B1F04CF42130310509F439C02230310509F03AC007C02132310539F12232FD
:20062000310549F132C0EDE8F0E080EE90E031C099278130910561F08230910581F0892B1F
:2006400021F5ECEDF0E0E491F0E08CED90E021C0E6ECF0E0E491F0E086EC90E01AC0ECEA53
:20066000F0E0E491F0E08CEA90E013C0E9E0F0E086E591E00EC0E0E2F0E08FE791E009C027
:20068000E2E1F0E08DE691E004C0E0E0F0E080E090E0DA018D939C93CF01089590917C008B
:2006A0009F7390937C00882319F0813051F404C080917C00806C03C080917C00806480935B
:2006C0007C0008959091F4038917F1F090917C00907E90937C0090917B009F7D90937B00C8
:2006E00020917C00962F982B9F71922B90937C0020917B00982F9072922B90937B00609396
:20070000F5038093F40312C08091F5036817A1F080917C008C7F80937C0090917C00862F73
:200720008370892B80937C006093F5038FEC97E00197F1F700C000000895EAE7F0E0808127
:2007400083688083EBE7F0E080818068808381E0A5DF81E08093F5038093F40360E080E022
:20076000B1CFCF93C82FAEDF90917A00906490937A0080917A0086FDFCCF80917800909164
:200780007900C073392F49F0292F269531F0317020E0282B2F5F314002C020E0282BC90106
:2007A000CF91089545B1982F969596959F70407F942B95B941B381FB992790F94E7D942B0B
:2007C000282F217030E085E0220F331F8A95E1F7922B91BB089584B18F6084B980B3816225
:2007E00080BB80E0DFCFF89480918E0390918F030197C1F48091F6039091F7039093D30166
:200800008093D2018091F8039091F9039093F3038093F2038091FA039091FB039093F10364
:200820008093F003789480918E0390918F0383709927AA2797FDA095BA2F2AE0880F991FC2
:20084000AA1FBB1F2A95D1F74091F0035091F1035370662757FD6095762F842B952BA62B57
:20086000B72B3AE0880F991FAA1FBB1F3A95D1F74091D2015091D3015370662757FD609501
:20088000762F842B952BA62BB72B4AE0880F991FAA1FBB1F4A95D1F74091F2035091F30331
:2008A0005370662757FD6095762F842B952BA62BB72B8093CA029093CB02A093CC02B093C5
:2008C000CD022FE130E08091CA029091CB02A091CC02B091CD02022E04C0B695A7959795A8
:2008E00087950A94D2F780FF02C08F9A01C08F98479A47982150310930F7089585E08A9570
:20090000F1F70000769A469A85E08A95F1F70000469876980895FC0110928F0310928E03A6
:20092000808191819093D3018093D201828193819093F3038093F203848195819093F1035D
:200940008093F00350DFDADF81E090E090938F0380938E0348DFD2CF9093F7038093F6038E
:200960007093F9036093F8035093FB034093FA0308953F9A3E9A6E9A879A8EB18F6B8EB9E2
:2009800088B18F6B88B94FE750E06FE770E08FE790E0E2CFCF93DF9300D000D000D0CDB778
:2009A000DEB79A8389837C836B835E834D83CE010196B1DF26960FB6F894DEBF0FBECDBFE2
:2009C000DF91CF910895869A8AB1846B8AB984B1806F84B98E9A5F9A85B1806F85B908959B
:2009E0009BB19B7C9BB99BB1682F617070E0660F771F660F771F962B81FB442740F950E015
:200A000034E0440F551F3A95E1F7942B82FB222720F930E045E0220F331F4A95E1F7922B8A
:200A20009BB986958695869521E030E0922F01C0990F8A95EAF7892F8E9A5F9A95B1906FB8
:200A400095B921B3982F9295990F990F907C9095922391BB2BB1982F96959795992797951E
:200A6000909592239BB965B1482F46954695469520E2429FA0011124282F2695269590E133
:200A8000299F90011124422B282F22952F7090E4299F90011124422B82958695877020E80E
:200AA000829FC0011124482B4095462345B90895E9ECF0E08081886080831092CD008FE163
:200AC0008093CC000895CF93DF9300D000D0CDB7DEB7FC018181228193813091000434302E
:200AE000C1F432E03093E900882399F0382F32953F7039838A832B839C8340E050E064E048
:200B000070E0CE01019685D28091E8008E778093E8000F900F900F900F90DF91CF910895E6
:200B20009091C80095FFFCCF8093CE000895CF93DF93FC018181D281C3819091C80095FF08
:200B4000FCCFEEDF8D2FECDF8C2FDF91CF91E8CF8091A0010895809361010895CF92DF9201
:200B6000EF92FF920F931F93CF93DF9300D000D0CDB7DEB7FC018081813041F5C180D12C5F
:200B80008F010B5F1F4FE12CF12C1CC0F80133978081811112C01982F801329780818A8354
:200BA000F801319780818B83F80180818C83CE01019689DFCE010196BADFFFEFEF1AFF0A8F
:200BC0000C5F1F4FEC14FD040CF305C082E0808381E08093A0010F900F900F900F90DF9111
:200BE000CF911F910F91FF90EF90DF90CF900895CF93DF93CDB7DEB7CF57D1090FB6F8948E
:200C0000DEBF0FBECDBF80910004843009F04EC083E08093E9008091E80080FF2DC0409179
:200C2000A10120E4429FC0011124FE0131969E012F5B3F4F8E1B9F0BDC01AE0FBF1FA050FF
:200C4000BF4F5C915193E217F307B1F7442321F0109262011092630181E084278093A101D6
:200C600040E050E060E470E0CE010196D2D18091E8008E778093E80084E08093E90080911D
:200C8000E80082FF13C08091E80085FF0AC040E050E06FE770E0CE01019609D2CE01019634
:200CA0005DDF8091E8008B778093E800C158DF4F0FB6F894DEBF0FBECDBFDF91CF91089507
:200CC00083E48BB90895982F2CC09093E900981739F07091EC002091ED005091F00003C016
:200CE000242F762F50E021FD02C09F5F1AC03091EB003E7F3093EB003091ED003D7F3093D0
:200D0000ED003091EB0031603093EB007093EC002093ED005093F0002091EE0027FDE5CF22
:200D200007C0973090F28F708093E90081E0089580E008958091010487FD05C08091E80055
:200D400080FF0EC012C08091E80082FD05C0809100048111F8CF08958091E8008B7708C069
:200D6000809100048111EACF08958091E8008E778093E80008958091E4009091E50045E6BA
:200D80002091EC0020FD1FC023C020910004222391F0253091F02091EB0025FD10C0209147
:200DA000E4003091E5002817390751F34150C90139F784E0089582E0089583E0089581E0FA
:200DC000089580E008952091E80020FFDECFF9CF2091E80022FFD9CFF4CF0F931F93CF9371
:200DE000DF9346D04DD0C8EDD0E088818F77888388818068888388818F7D888319BC10923C
:200E000000041092FC031092FE031092FD0300EE10E0F80180818B7F80838881816088830E
:200E200042E060E080E04FDFE1EEF0E080818E7F8083E2EEF0E080818160808380818860A4
:200E40008083F80180818E7F8083888180618883DF91CF911F910F910895E7EDF0E080812E
:200E60008160808384E082BF81E08093FF03B5CFE8EDF0E080818E7F80831092E200089518
:200E80001092DA001092E10008951F920F920FB60F9211242F933F934F935F936F937F934D
:200EA0008F939F93AF93BF93EF93FF938091E10082FF0AC08091E20082FF06C08091E100CD
:200EC0008B7F8093E10068D38091DA0080FF1DC08091D80080FF19C08091DA008E7F809346
:200EE000DA008091D90080FF0CC080E189BD82E189BD09B400FEFDCF81E0809300046ADB4F
:200F000004C019BC1092000466DB8091E10080FF18C08091E20080FF14C08091E2008E7FC2
:200F20008093E2008091E20080618093E2008091D80080628093D80019BC85E080930004EC
:200F40002BD38091E10084FF2DC08091E20084FF29C080E189BD82E189BD09B400FEFDCFFB
:200F60008091D8008F7D8093D8008091E1008F7E8093E1008091E2008F7E8093E200809198
:200F8000E20081608093E2008091FC03811104C08091E30087FF02C084E001C081E080935E
:200FA0000004FAD28091E10083FF22C08091E20083FF1EC08091E100877F8093E10082E06A
:200FC000809300041092FC038091E1008E7F8093E1008091E2008E7F8093E2008091E2007E
:200FE00080618093E20042E060E080E06CDED4D2FF91EF91BF91AF919F918F917F916F9169
:201000005F914F913F912F910F900FBE0F901F901895BF92CF92DF92EF92FF920F931F9380
:20102000CF93DF937C018B01EA01A5DEB82E811133C0209731F028813981021B130BE20E94
:20104000F31EC12CD12C23C08091E80085FD15C08091E8008E778093E8009FD2209749F008
:20106000888199818C0D9D1D9983888325E0B22E13C081DE882359F00EC0F70181917F0170
:201080008093F10001501109FFEFCF1ADF0A01151105D1F601C0B82E8B2DDF91CF911F914F
:2010A0000F91FF90EF90DF90CF90BF900895BF92CF92DF92EF92FF920F931F93CF93DF936B
:2010C0007C018B01EA0157DEB82E811133C0209731F028813981021B130BE20EF31EC12C18
:2010E000D12C23C08091E80085FD15C08091E8008B778093E80051D2209749F08881998194
:201100008C0D9D1D9983888345E0B42E13C033DE882359F00EC08091F100F70181937F011A
:2011200001501109FFEFCF1ADF0A01151105D1F601C0B82E8B2DDF91CF911F910F91FF9083
:20114000EF90DF90CF90BF90089540910704509108044617570748F06115710539F44091B0
:20116000E8004E774093E80001C0BA01FC0140E033C080910004882309F442C0853009F40A
:2011800041C08091E80083FD39C08091E80082FD2FC08091E80080FF1FC09091F3008091F9
:2011A000F200392F20E0A901482BCA0106C041914093F1006150710901966115710519F0DA
:2011C00088309105A0F341E0089709F040E08091E8008E778093E8006115710551F64111D7
:2011E000C8CF06C080910004882351F0853051F08091E80082FFF6CF80E0089581E0089561
:2012000082E0089583E0089540910704509108044617570748F06115710539F44091E80041
:201220004E774093E80001C0BA01FC0140E034C080910004882309F443C0853009F442C02D
:201240008091E80083FD3AC08091E80082FD30C08091E80080FF20C09091F3008091F20044
:20126000392F20E0A901482BCA0107C044914093F10031966150710901966115710519F040
:201280008830910598F341E0089709F040E08091E8008E778093E8006115710549F6411126
:2012A000C7CF06C080910004882351F0853051F08091E80082FFF6CF80E0089581E00895A1
:2012C00082E0089583E00895EF92FF920F931F93CF93DF93CDB7DEB7AC970FB6F894DEBF8B
:2012E0000FBECDBFE1E0F4E08091F100819324E0E930F207C9F780D98091E80083FF31C14E
:201300008091010490910204953009F487C038F49130B1F170F0933009F023C131C098303F
:2013200009F4F4C0993009F400C1963009F019C19CC0803821F0823809F013C108C0809157
:20134000FD039091FE03992389F082600FC080910504909106048F7099278093E900809174
:20136000EB0085FB882780F91092E9009091E800977F9093E8008093F1001092F100D1C0FD
:20138000882319F0823009F0ECC08F7121F0823009F0E7C00BC080910304813009F0E1C0B1
:2013A000933009F080E08093FE032FC08091030481112BC080910504909106048F70992775
:2013C000009709F4CEC08093E9002091EB0020FF1CC020910204233021F48091EB0080625B
:2013E00012C09091EB0090619093EB0021E030E001C0220F8A95EAF72093EA001092EA00E4
:201400008091EB0088608093EB001092E9008091E800877F8093E8008DDCA3C08111A1C0A6
:2014200000910304109104040F771127E02EFFB6F8948091E800877F8093E8007BDC8091FC
:20144000E80080FFFCCF8091E3008078802B8093E30080688093E300EE2011F083E001C0BC
:2014600082E080930004FFBE7CC08058823008F078C080910304909104048C3D23E092079A
:2014800071F583E08A838AE289834FB7F894DE01139620E03EE051E2E32FF0E05093570077
:2014A000E49120FF03C0E295EF703F5FEF708E2F90E0EA3010F0C79601C0C0968D939D93F7
:2014C0002F5F243149F74FBF8091E800877F8093E8006AE270E0CE01019637DE11C0AE014A
:2014E000455D5F4F6091050488D80097D1F12091E800277F2093E800BC018BA59CA584DE7F
:201500008091E8008B778093E8002BC0803849F58091E800877F8093E8008091FC038093D7
:20152000F1008091E8008E7775CF81111AC0909103049230B0F48091E800877F8093E80084
:201540009093FC03F7DB8091FC03811104C08091E30087FF02C084E001C081E08093000458
:201560003BD88091E80083FF0AC08091EB0080628093EB008091E800877F8093E800AC96FB
:201580000FB6F894DEBF0FBECDBFDF91CF911F910F91FF90EF9008950895CF938091000425
:2015A0008823A9F08091E9008F709091EC0090FF02C090E801C090E0C92FC82B1092E90071
:2015C0008091E80083FD80DECF70C093E900CF910895052E97FB16F4009406D057FD0CD053
:2015E00013D007FC09D07EF490958095709561957F4F8F4F9F4F0895509540953095219519
:201600003F4F4F4F5F4F0895A1E21A2EAA1BBB1BFD010DC0AA1FBB1FEE1FFF1FA217B307E1
:20162000E407F50720F0A21BB30BE40BF50B661F771F881F991F1A9469F7609570958095B2
:2016400090959B01AC01BD01CF010895F999FECF92BD81BDF89A992780B50895262FF999FA
:20166000FECF1FBA92BD81BD20BD0FB6F894FA9AF99A0FBE01960895F894FFCF0100000086
:2016800000000000000000000000000000000000000000000000000000000000000000004A
:2016A00000000000000000000000000000000000000000000000000000000000000000002A
:2016C00000000000000000000000000000000000000000000000000000000000000000000A
:2016E0000000000000000000000000000000000000000000000000000000006C028A025898
:1C170000028002440262021C024402EA010802C201EA0186019A01F0005E010027
:2070000055C000007FC000007DC000007BC0000079C0000077C0000075C0000073C00000CC
:2070200071C000006FC00000A4C200006BC0000069C0000067C0000065C0000063C00000C7
:2070400061C000005FC000005DC000005BC0000059C0000057C0000055C0000053C0000060
:2070600051C000004FC000004DC000004BC0000049C0000047C0000045C0000043C00000C0
:2070800041C000003FC000003DC000003BC0000039C0000037C0000035C0000033C0000020
:2070A00031C000002FC000002DC0000011241FBECFEFDAE0DEBFCDBF04B603FE0EC08091B6
:2070C00060019091610182349C4D39F41092610110926001E0E0F0E0099511E0A0E0B1E0C9
:2070E000EAE0FAE702C005900D92AA34B107D9F711E0AAE4B1E001C01D92A036B107E1F7A3
:2071000002D081C47DCFCF93DF9300D000D000D0CDB7DEB784B7877F84BF88E10FB6F89471
:2071200080936000109260000FBE81E085BF82E085BF07D2E1D0729A789481E090E05BD420
:20714000629937C08A30A9F520C08FE99FE00197F1F700C0000034D401501109B1F71A8217
:2071600019821C821B821E821D82CE0101965AD104EF11E08FE99FE00197F1F700C000004E
:207180001FD401501109B1F704C0EE24EA9483E0F82E80910001882361F0FA82E9821C8279
:2071A0001B821E821D82CE0101963CD104EF11E0CCCF8091E00081608093E00082E49CED4D
:2071C00090936101809360012CE088E190E00FB6F894A895809360000FBE20936000FFCF22
:2071E00042E361EC81E03FC1809158018F77813209F063C080915901893009F05EC0809131
:20720000E800877F8093E8008091E80082FFFCCF3091F1002091F100832F922F8F3F2FEF8D
:20722000920719F41092000142C023E0FC0120935700E89507B600FCFDCF20E030E0A1E066
:207240005091F3004091F200752F60E0FB01E42BAF01452BB1F0F091F100E091F1004F2F95
:207260005E2FF901EE0FFF1FE80FF91F0A01A0935700E89511242F5F3F4F2034310501F778
:207280000AC04091E8004B774093E8004091E80042FFFCCFE0CF25E0FC0120935700E895F1
:2072A00007B600FCFDCF81E180935700E8958091E8008B778093E800EAC00895913049F0C9
:2072C000923061F0913279F429E030E083E191E00EC022E130E083E291E009C022E230E0E9
:2072E00081E091E004C025E130E085E391E0FA0191838083C90108953F9A3E9A6E9A879AB6
:207300008EB18F6B8EB988B18F6B88B9089580915001909151018130910581F42FE730E025
:2073200030934B0120934A012EE630E030935501209354013093530120935201837099272B
:20734000AA2797FDA095BA2F2AE0880F991FAA1FBB1F2A95D1F7409152015091530153700B
:20736000662757FD6095762F842B952BA62BB72B3AE0880F991FAA1FBB1F3A95D1F74091FC
:207380004A0150914B015370662757FD6095762F842B952BA62BB72B4AE0880F991FAA1FD3
:2073A000BB1F4A95D1F740915401509155015370662757FD6095762F842B952BA62BB72B8F
:2073C00080934C0190934D01A0934E01B0934F012FE130E080914C0190914D01A0914E015A
:2073E000B0914F01022E04C0B695A795979587950A94D2F780FF02C08F9A01C08F98479A9F
:2074000047982150310930F7089585E08A95F1F70000769A469A85E08A95F1F70000469878
:2074200076980895FC0110925101109250018081918190934B0180934A01828193819093A3
:207440005501809354018481958190935301809352015DDFDADF81E090E090935101809328
:20746000500155DFD2CF8F708093E900EBEEF0E0808181608083EDEEF0E010826093EC0041
:2074800040838091EE00881F8827881F08958091580187FD05C08091E80080FF0DC010C0C8
:2074A0008091E80082FD04C08EB38111F9CF08958091E8008B7707C08EB38111ECCF08956B
:2074C0008091E8008E778093E80008950F931F93CF93DF9341D048D0C8EDD0E088818F7751
:2074E000888388818068888388818F7D888319BC1EBA1092560100EE10E0F80180818B7FDD
:20750000808388818160888342E060E080E0ABDFE1EEF0E080818E7F8083E2EEF0E08081D6
:2075200081608083808188608083F80180818E7F8083888180618883DF91CF911F910F915C
:207540000895E7EDF0E080818160808384E082BF81E080935701BACFE8EDF0E080818E7F58
:2075600080831092E20008951092DA001092E10008951F920F920FB60F9211242F933F93CA
:207580004F935F936F937F938F939F93AF93BF93EF93FF938091DA0080FF1BC08091D800D9
:2075A00080FF17C08091DA008E7F8093DA008091D90080FF0BC080E189BD82E189BD09B44F
:2075C00000FEFDCF81E08EBBFAD103C019BC1EBAF6D18091E10080FF17C08091E20080FF7B
:2075E00013C08091E2008E7F8093E2008091E20080618093E2008091D80080628093D80044
:2076000019BC85E08EBBDBD18091E10084FF2CC08091E20084FF28C080E189BD82E189BD2C
:2076200009B400FEFDCF8091D8008F7D8093D8008091E1008F7E8093E1008091E2008F7EF0
:207640008093E2008091E20081608093E20080915601811104C08091E30087FF02C084E00E
:2076600001C081E08EBBABD18091E10083FF21C08091E20083FF1DC08091E100877F809371
:20768000E10082E08EBB109256018091E1008E7F8093E1008091E2008E7F8093E20080916C
:2076A000E20080618093E20042E060E080E0DBDE86D1FF91EF91BF91AF919F918F917F9140
:2076C0006F915F914F913F912F910F900FBE0F901F90189540915E0150915F0146175707B7
:2076E00048F06115710539F44091E8004E774093E80001C0BA01FC0140E032C08EB3882389
:2077000009F441C0853009F440C08091E80083FD38C08091E80082FD2EC08091E80080FF6A
:207720001FC09091F3008091F200392F20E0A901482BCA0106C041914093F100615071097C
:2077400001966115710519F088309105A0F341E0089709F040E08091E8008E778093E800EA
:207760006115710559F64111C9CF05C08EB3882351F0853051F08091E80082FFF7CF80E05C
:20778000089581E0089582E0089583E00895EF92FF920F931F93CF93DF9300D0CDB7DEB72C
:2077A000E8E5F1E08091F100819381E0E036F807C9F71ADD8091E80083FFEAC08091580159
:2077C00090915901953009F470C038F4913079F170F0933009F0DCC02AC0983009F4ABC013
:2077E000993009F4BAC0963009F0D2C084C0803899F0823809F0CCC080915C0190915D0147
:207800008F7099278093E9009091EB0095FB992790F91092E90001C090E08091E800877F0D
:207820008093E8009093F1001092F1008FC0882319F0823009F0ACC08F71823009F0A8C079
:2078400080915A0181112BC080915C0190915D018F709927009709F49BC08093E9002091F7
:20786000EB0020FF1CC020915901233021F48091EB00806212C09091EB0090619093EB00F4
:2078800021E030E001C0220F8A95EAF72093EA001092EA008091EB0088608093EB00109238
:2078A000E9008091E800877F54C0811171C000915A0110915B010F771127E02EFFB6F89413
:2078C0008091E800877F8093E800E1DD8091E80080FFFCCF8091E3008078802B8093E30020
:2078E00080688093E300EE2011F083E001C082E08EBBFFBE4DC08058823008F049C0AE01C8
:207900004F5F5F4F60915C0180915A0190915B01D5DC009709F43CC02091E800277F2093A1
:20792000E800BC0189819A81D5DE8091E8008B778093E8002DC0803859F58091E800877FE2
:207940008093E800809156018093F1008091E8008E778093E8009BDD1BC0811119C09091E8
:207960005A019230A8F48091E800877F8093E800909356018CDD80915601811104C08091A2
:20798000E30087FF02C084E001C081E08EBB28DC8091E80083FF0AC08091EB0080628093B3
:2079A000EB008091E800877F8093E8000F900F90DF91CF911F910F91FF90EF90089508953C
:2079C000CF938EB38823A9F08091E9008F709091EC0090FF02C090E801C090E0C92FC82BD5
:2079E0001092E9008091E80083FDD1DECF70C093E900CF910895F999FECF92BD81BDF89ADE
:207A0000992780B50895F894FFCF010902220001010080FA09040000010300000009211184
:207A2000010001221500070581034000051201100100000008501D416000010000000106F6
:147A4000DCFF09FBA1010902150025FF75089682009102C085
:040000050000700087
:00000001FF
